:1000000010C01FC01EC01DC01CC01BC01AC019C01C
:1000100018C017C016C015C014C013C012C011C03C
:1000200010C011241FBECFE5D1E0DEBFCDBF21E05F
:10003000A0E0B1E001C01D92A530B207E1F702D007
:10004000F9C0DECF88ED809371001092730080E8D4
:1000500080937400F8948DE38093A50098E09093CA
:10006000A40080E28093A2001092A1008FEF88BDCF
:100070008ABD8093C2008CBF81EF8FBD8AE08EBDA8
:1000800021E32093CA008093C90083E380BF82E00C
:1000900083BF85E2809367001092680087E48093B5
:1000A00066008EE88ABB8DE089B918B886EE85B9FE
:1000B00094B98091630080658093630063E0EAEA0D
:1000C00040E25EE48FEF9FEFF1E077E02091A30044
:1000D00023FF05C02091A30028602093A300209156
:1000E000A30022FF05C02091A30024602093A30059
:1000F00020910001309101012115310501F528B54C
:100100002F3F19F028B52F5F28BD2AB52F3F19F0D2
:100110002AB52F5F2ABD2091C2002F3F29F02091E0
:10012000C2002F5F2093C2002CB72F3F19F02CB7CD
:100130002F5F2CBF509301014093000106C0215056
:10014000310930930101209300012091A30027FF82
:1001500061C02091A30021FF24C02091020123321D
:1001600089F030F4213261F02232B1F42AB50CC0AA
:10017000253281F068F0263279F4E093A0000EC0B9
:1001800028B502C02091C20020952093A00006C08F
:100190002CB7FACF27B1F9CF1092A0006093A4003A
:1001A00034C02091A000209304016093A40020910A
:1001B0000301211107C02091040120930201F09353
:1001C000030128C020910201223289F038F4213243
:1001D000E1F420910401209528BD13C0233261F081
:1001E000243299F42091040120952CBF0AC020915B
:1001F000040120952ABD05C020910401209520937B
:10020000C2009093010180930001209102012F5FB1
:10021000209302012091A30026FF58CF2091A30034
:1002200020FF03C06093A40002C07093A40010924A
:0802300003014CCFF894FFCF4D
:00000001FF
