:1000000010C01FC01EC01DC01CC01BC01AC019C01C
:1000100018C017C016C015C014C013C012C011C03C
:1000200010C011241FBECFE5D1E0DEBFCDBF21E05F
:10003000A0E0B1E001C01D92A530B207E1F702D007
:10004000F7C0DECF88ED80937100109273008FEFC0
:1000500080937400F8948DE38093A50098E09093CA
:10006000A40080E28093A2001092A1008FEF88BDCF
:100070008ABD8093C2008CBF81EF8FBD8AE08EBDA8
:1000800021E32093CA008093C90083E380BF82E00C
:1000900083BF85E2809367001092680087E48093B5
:1000A00066008EE88ABB8DE089B918B886EE85B9FE
:1000B00094B98091630080658093630043E06AEAAD
:1000C00080E395E771E057E02091A30023FF05C08E
:1000D0002091A30028602093A3002091A30022FF79
:1000E00005C02091A30024602093A300209100016B
:1000F000309101012115310501F528B52F3F19F087
:1001000028B52F5F28BD2AB52F3F19F02AB52F5FDC
:100110002ABD2091C2002F3F29F02091C2002F5FFD
:100120002093C2002CB72F3F19F02CB72F5F2CBFA4
:10013000909301018093000106C021503109309352
:100140000101209300012091A30027FF61C02091AD
:10015000A30021FF24C020910201233089F030F454
:10016000213061F02230B1F42AB50CC0253081F085
:1001700068F0263079F46093A0000EC028B502C064
:100180002091C20020952093A00006C02CB7FACF82
:1001900027B1F9CF1092A0004093A40034C0209161
:1001A000A000209304014093A40020910301211199
:1001B00007C020910401209302017093030128C01D
:1001C00020910201223089F038F42130E1F42091AD
:1001D0000401209528BD13C0233061F0243099F428
:1001E0002091040120952CBF0AC020910401209584
:1001F0002ABD05C02091040120952093C200909350
:10020000010180930001209102012F5F20930201E0
:100210002091A30026FF58CF2091A30020FF03C008
:100220004093A40002C05093A400109203014CCF4D
:04023000F894FFCF70
:00000001FF
